S0160000456C657661746F724472697665722E7372656360
S113000012C021C020C01FC01EC01DC01CC01BC008
S11300101AC019C018C017C016C015C014C013C028
S113002012C011C010C011241FBECFE5D4E0DEBF42
S1130030CDBF20E0A0E6B0E001C01D92A236B20719
S1130040E1F71ED111C2DCCF8091610082BB08951B
S113005010926000989B05C080916000816080933D
S11300606000999B05C0809160008260809360006D
S11300709A9B05C0809160008460809360009B9B84
S113008005C0809160008860809360009C9B05C0DF
S1130090809160008061809360009D9B05C0809189
S11300A06000806280936000B29B05C08091600014
S11300B0806480936000B19B05C08091600080687B
S11300C0809360000895CF93DF9300D0CDB7DEB75F
S11300D00097A9F01A82198229813A81223C314081
S11300E064F4000029813A812F5F3F4F3A832983CA
S11300F029813A81223C3140A4F3019759F70F90AA
S11301000F90DF91CF910895A3DF8091600080FF6D
S113011058C08091600084FD3AC0089599DF8091B1
S1130120600080FD11C08091610080648093610053
S11301308091610080688093610080916100877F75
S11301408093610081DF05C08091610088608093A5
S113015061008091600084FDE1CF80916100877F20
S113016080936100809161008D7F80936100809114
S1130170610080688093610067DF84EF91E0A3DF12
S11301801092610061DF84E690E09DDF0895809124
S1130190610081608093610057DF84E690E093DF23
S11301A08091610080618093610080916100826030
S11301B0809361008091610088608093610044DFD6
S11301C0C8CF089545DF8091600080FF58C08091BA
S11301D0600085FD3AC008953BDF8091600080FD9A
S11301E011C08091610080648093610080916100FE
S11301F080688093610080916100877F80936100B3
S113020023DF05C080916100886080936100809144
S1130210600085FDE1CF80916100877F809361005C
S1130220809161008B7F8093610080916100806880
S11302308093610009DF84EF91E045DF1092610053
S113024003DF84E690E03FDF0895809161008160E0
S113025080936100F9DE84E690E035DF80916100EF
S1130260806280936100809161008460809361006A
S113027080916100886080936100E6DEC8CF0895B4
S11302808FEF81BB17BA14BA12BA18BA15BA109202
S11302906100DEDE8091600081FF04C08091600017
S11302A084FF7AC08091600082FF04C08091600066
S11302B085FF82C08091600081FF04C0809160004E
S11302C080FF8AC08091600082FF04C0809160003A
S11302D080FF97C08091600080FF08C0809160001B
S11302E081FF04C08091600085FFA0C08091600000
S11302F080FF08C08091600082FF04C0809160008C
S113030084FF96C08091600080FFC3CF809160001D
S113031081FFBFCF8091600082FFBBCF80916000DE
S113032083FFB7CF87C094DE8091600080FD11C049
S11303308091610080648093610080916100806895
S11303408093610080916100877F809361007CDEEF
S113035005C0809161008860809361008091600095
S113036084FDE1CF80916100877F8093610080915B
S113037061008D7F8093610080916100806880932B
S1130380610062DE84EF91E09EDE109261005CDE2B
S113039084E690E098DE7DCF809161008068809350
S11303A0610052DE8AE090E08EDE109261004CDE45
S11303B084E690E088DE76CF809161008068809347
S11303C0610042DE8AE090E07EDE109261003CDE55
S11303D084E690E078DE6ECF809161008064809343
S11303E06100809161008062809361002DDE88EC61
S11303F090E069DE1092610027DE84E690E063DE1F
S113040061CF80916100806480936100809161007C
S113041080618093610018DE88EC90E054DE1092D5
S1130420610012DE84E690E04EDE54CF6DDE5ECFD6
S1130430C9DE68CF8091610081608093610004DE31
S113044084E690E040DE80916100806180936100E9
S11304508091610082608093610080916100886076
S10F046080936100F1DD7ACFF894FFCFA7
S9030000FC
