:1000000012C021C020C01FC01EC01DC01CC01BC00C
:100010001AC019C018C017C016C015C014C013C02C
:1000200012C011C010C011241FBECFE5D4E0DEBF46
:10003000CDBF20E0A0E6B0E001C01D92A236B2071D
:10004000E1F70CD19BC1DCCF8091610082BB0895A8
:1000500010926000989B05C0809160008160809341
:100060006000999B05C08091600082608093600071
:100070009A9B05C0809160008460809360009B9B88
:1000800005C0809160008860809360009C9B05C0E3
:10009000809160008061809360009D9B05C080918D
:1000A0006000806280936000B29B05C08091600018
:1000B000806480936000B19B05C08091600080687F
:1000C000809360000895CF93DF9300D0CDB7DEB763
:1000D0000097A9F01A82198229813A81223C314085
:1000E00064F4000029813A812F5F3F4F3A832983CE
:1000F00029813A81223C3140A4F3019759F70F90AE
:100100000F90DF91CF910895A3DF8091600080FF71
:1001100051C08091600084FD1AC0089599DF8091DC
:10012000600080FD0BC0809161008064809361005D
:100130008091610080688093610086DF809160001B
:1001400084FF1FC08091600080FDE8CF1AC08091BD
:10015000610081608093610077DF84E690E0B3DF27
:100160008091610080618093610080916100826074
:10017000809361008091610088608093610064DFFA
:10018000DDCF80916100877F809361008091610065
:100190008D7F809361008091610080688093610011
:1001A00053DF88EE93E08FDF109261004DDF84EF24
:1001B00091E089DF08954CDF8091600080FF4DC0A1
:1001C0008091600085FD2FC0089542DF809160001E
:1001D00080FD0BC0809161008064809361008091FC
:1001E00061008068809361002FDF8091600085FD51
:1001F000ECCF80916100877F8093610080916100E6
:100200008B7F8093610080916100806880936100A2
:100210001BDF88EE93E057DF1092610015DF84EF5B
:1002200091E051DF089580916100816080936100C9
:100230000BDF84E690E047DF80916100806280936D
:100240006100809161008460809361008091610011
:10025000886080936100F8DEC8CF08958FEF81BB7E
:1002600017BA14BA12BA18BA15BA10926100F0DEB1
:100270008091600081FF04C08091600084FF32C0E3
:100280008091600082FF04C08091600085FF3AC0C9
:100290008091600081FF04C08091600080FF42C0B7
:1002A0008091600082FF04C08091600080FF4FC099
:1002B0008091600080FF08C08091600081FF04C0D1
:1002C0008091600085FF58C08091600080FFCFCF93
:1002D0008091600082FFCBCF8091600084FDC7CF0A
:1002E0006ADFC5CF80916100806480936100ACDEDD
:1002F0008AE090E0E8DE10926100A6DE84E690E0FD
:10030000E2DEBECF809161008068809361009CDE58
:100310008AE090E0D8DE1092610096DE84E690E0FC
:10032000D2DEB6CF809161008064809361008091BD
:10033000610080628093610087DE88EC90E0C3DE1C
:100340001092610081DE84E690E0BDDEA9CF80914D
:10035000610080648093610080916100806180937E
:10036000610072DE88EC90E0AEDE109261006CDE1F
:1003700084E690E0A8DE9CCFC7DEA6CFF894FFCF3E
:00000001FF
