:1000000012C021C020C01FC01EC01DC01CC01BC00C
:100010001AC019C018C017C016C015C014C013C02C
:1000200012C011C010C011241FBECFE5D4E0DEBF46
:10003000CDBF20E0A0E6B0E001C01D92A236B2071D
:10004000E1F7ECD06FC1DCCF8091610082BB0895F5
:1000500010926000989B05C0809160008160809341
:100060006000999B05C08091600082608093600071
:100070009A9B05C0809160008460809360009B9B88
:1000800005C0809160008860809360009C9B05C0E3
:10009000809160008061809360009D9B05C080918D
:1000A0006000806280936000B29B05C08091600018
:1000B000806480936000B19B05C08091600080687F
:1000C000809360000895CF93DF9300D0CDB7DEB763
:1000D0000097A9F01A82198229813A81223C314085
:1000E00064F4000029813A812F5F3F4F3A832983CE
:1000F00029813A81223C3140A4F3019759F70F90AE
:100100000F90DF91CF910895A3DF8091600080FF71
:100110003FC08091600084FD1DC0089599DF8091EB
:10012000600084FDFBCF80916100877F8093610038
:10013000809161008D7F8093610080916100806873
:100140008093610081DF88EE93E0BDDF1092610053
:100150007BDF08958091610081608093610074DF8E
:1001600084E690E0B0DF809161008061809361005F
:10017000809161008260809361008091610088605D
:100180008093610061DF8091600084FDC7CFCBCF99
:1001900008955EDF8091600080FF3FC08091600025
:1001A00085FD1DC0089554DF8091600085FDFBCF63
:1001B00080916100877F80936100809161008B7FD7
:1001C00080936100809161008068809361003CDFD2
:1001D00088EE93E078DF1092610036DF0895809119
:1001E00061008160809361002FDF84E690E06BDF27
:1001F00080916100806280936100809161008460E1
:1002000080936100809161008860809361001CDFB1
:100210008091600085FDC7CFCBCF08958FEF81BB64
:1002200017BA14BA12BA18BA15BA1092610010DFD0
:100230008091600081FF04C08091600084FF32C023
:100240008091600082FF04C08091600085FF37C00C
:100250008091600081FF04C08091600080FF3CC0FD
:100260008091600082FF04C08091600080FF46C0E2
:100270008091600080FF08C08091600081FF04C011
:100280008091600085FF4CC08091600080FFCFCFDF
:100290008091600082FFCBCF8091600084FDC7CF4A
:1002A00078DFC5CF80916100806480936100CCDEEF
:1002B0008AE090E008DF10926100C6DEC1CF809135
:1002C0006100806880936100BFDE8AE090E0FBDE21
:1002D00010926100B9DEBCCF809161008064809390
:1002E000610080916100806280936100ADDE88ECE6
:1002F00090E0E9DE10926100A7DEB2CF809161004C
:1003000080648093610080916100806180936100CE
:100310009BDE88EC90E0D7DE1092610095DEA8CFDE
:08032000F3DEB2CFF894FFCF29
:00000001FF
