:1000000012C021C020C01FC01EC01DC01CC01BC00C
:100010001AC019C018C017C016C015C014C013C02C
:1000200012C011C010C011241FBECFE5D4E0DEBF46
:10003000CDBF20E0A0E6B0E001C01D92A236B2071D
:10004000E1F723D1DBC1DCCF8091610082BB089551
:1000500010926000989B05C0809160008160809341
:100060006000999B05C08091600082608093600071
:100070009A9B05C0809160008460809360009B9B88
:1000800005C0809160008860809360009C9B05C0E3
:10009000809160008061809360009D9B05C080918D
:1000A0006000806280936000B29B05C08091600018
:1000B000806480936000B19B05C08091600080687F
:1000C000809360000895CF93DF9300D0CDB7DEB763
:1000D0000097A9F01A82198229813A81223C314085
:1000E00064F4000029813A812F5F3F4F3A832983CE
:1000F00029813A81223C3140A4F3019759F70F90AE
:100100000F90DF91CF910895A3DF8091600080FF71
:100110005DC08091600084FD20C0089580916100E1
:1001200080648093610080916100806880936100A9
:1001300080916100877F8093610086DF05C0809198
:1001400061008860809361008091600084FF25C019
:100150008091600080FD1BC020C0809161008160A3
:100160008093610071DF84E690E0ADDF80916100F3
:100170008061809361008091610082608093610062
:10018000809161008860809361005EDFDDCF60DF79
:100190008091600080FDD3CFC1CF80916100877FC7
:1001A00080936100809161008D7F809361008091D8
:1001B000610080688093610047DF88EE93E083DF11
:1001C0001092610041DF84EF91E07DDF089540DF10
:1001D0008091600080FF58C08091600085FD3AC02A
:1001E000089536DF8091600080FD11C0809161002C
:1001F00080648093610080916100806880936100D9
:1002000080916100877F809361001EDF05C080912F
:1002100061008860809361008091600085FDE1CF7E
:1002200080916100877F80936100809161008B7F66
:10023000809361008091610080688093610004DF99
:1002400088EE93E040DF10926100FEDE84EF91E0E3
:100250003ADF089580916100816080936100F4DE4F
:1002600084E690E030DF80916100806280936100DD
:10027000809161008460809361008091610088605A
:1002800080936100E1DEC8CF08958FEF81BB17BA7C
:1002900014BA12BA18BA15BA10926100D9DE809158
:1002A000600083FF25C080916100806180936100C0
:1002B0008091610080628093610080916100806420
:1002C00080936100809161008068809361008091DB
:1002D000600083FF05C0BCDE8091600083FDFBCF22
:1002E00084E690E0F0DE1092610084EF91E0EBDEB6
:1002F0008091600081FF04C08091600084FF32C063
:100300008091600082FF04C08091600085FF3AC048
:100310008091600081FF04C08091600080FF42C036
:100320008091600082FF04C08091600080FF4FC018
:100330008091600080FF08C08091600081FF04C050
:100340008091600085FF58C08091600080FFA6CF3B
:100350008091600082FFA2CF8091600084FD9ECFDB
:1003600036DF9CCF809161008068809361006CDEF5
:100370008AE090E0A8DE1092610066DE84E690E0FC
:10038000A2DEBECF809161008068809361005CDE58
:100390008AE090E098DE1092610056DE84E690E0FC
:1003A00092DEB6CF8091610080648093610080917D
:1003B000610080628093610047DE88EC90E083DE1C
:1003C0001092610041DE84E690E07DDEA9CF80914D
:1003D00061008064809361008091610080618093FE
:1003E000610032DE88EC90E06EDE109261002CDE5F
:1003F00084E690E068DE9CCF87DEA6CFF894FFCF3E
:00000001FF
