:1000000012C021C020C01FC01EC01DC01CC01BC00C
:100010001AC019C018C017C016C015C014C013C02C
:1000200012C011C010C011241FBECFE5D4E0DEBF46
:10003000CDBF20E0A0E6B0E001C01D92A236B2071D
:10004000E1F762D05AC1DCCF8091610082BB089594
:1000500010926000989B05C0809160008160809341
:100060006000999B05C08091600082608093600071
:100070009A9B05C0809160008460809360009B9B88
:1000800005C0809160008860809360009C9B05C0E3
:10009000809160008061809360009D9B05C080918D
:1000A0006000806280936000B29B05C08091600018
:1000B000806480936000B19B05C08091600080687F
:1000C000809360000895CF93DF9300D0CDB7DEB763
:1000D0000097A9F01A82198229813A812A3F3105B5
:1000E00064F4000029813A812F5F3F4F3A832983CE
:1000F00029813A812A3F3105A4F3019759F70F90DE
:100100000F90DF91CF9108958FEF81BB17BA14BA8A
:1001100012BA18BA15BA109261009ADF8091600085
:1001200081FF04C08091600084FD7AC080916000EE
:1001300082FF04C08091600085FD82C080916000D4
:1001400081FF04C08091600080FF8AC080916000C0
:1001500082FF04C08091600080FF97C080916000A2
:1001600080FFA8C08091600081FFA4C080916000E2
:1001700085FFA0C06DDF80916000FCCF80916000A2
:1001800082FF9CC08091600084FF98C061DF8091F5
:100190006000FCCF8091600081FFBFCF8091600044
:1001A00082FFBBCF8091600083FFB7CF8CC050DF50
:1001B0008091600080FD11C0809161008064809317
:1001C000610080916100806880936100809161008E
:1001D000877F8093610038DF05C08091610088606F
:1001E000809361008091600084FDE1CF8091610087
:1001F000877F80936100809161008D7F8093610093
:10020000809161008068809361001EDF84EF91E03F
:100210005ADF1092610018DF84E690E054DF7DCF52
:10022000809161008068809361000EDF8AE090E039
:100230004ADF1092610008DF84E690E044DF76CF69
:1002400080916100806880936100FEDE8AE090E02A
:100250003ADF10926100F8DE84E690E034DF6ECF82
:100260008091610080648093610080916100806270
:1002700080936100E9DE88EC90E025DF1092610058
:10028000E3DE84E690E01FDF61CF8091610080644F
:100290008093610080916100806180936100D4DE71
:1002A00088EC90E010DF10926100CEDE84E690E0F2
:1002B0000ADF54CF8091600080FD60CF80916000A4
:1002C00080FD68CF2ACF80916100816080936100BA
:1002D000BBDE84E690E0F7DE809161008061809370
:1002E0006100809161008260809361008091610073
:0E02F000886080936100A8DE75CFF894FFCF80
:00000001FF
